:10000000CFC369C8E8C3E7C3E6C3E5C3E4C3E3C33A
:10001000E2C391C8DCC7DFC3DEC332C8DCC3DBC3C5
:1000200075C6D9C3D8C3D7C3D6C343C8D4C3D3C3F3
:10003000D2C3D1C3CC525252528C334A4A4A4A316B
:100040000C12120C0000000000000000F0FC0E0674
:1000500006060EFCF0001F7FE0C0C0C0E07F1F005E
:100060000010181CFEFE0000000000C0C0C0FFFF12
:10007000C0C00000181C0E06060EFCF80000E0F0E0
:10008000F8DCCEC7C3C0C000181C06868686CE7CAE
:10009000380060E0C0C1C1C1E37F3E0080C0603075
:1000A000180CFEFE0000070606060606FFFF060007
:1000B00000FEFEC6C6C6C68606000061C1C0C0C03E
:1000C000E17F1F00E0F8BCCEC6C6C68600000F3F29
:1000D00070E0C0C0E07F3F000E0E060606C6FE7E42
:1000E0001E0000C0F07C1F070100000038FCC6861F
:1000F0008686C6FC38003C7EC3C1C1C1C37E3C00BD
:10010000F0FC0C0606060CFCF0000143C3C6C6E674
:10011000723F0F000000DE4A4A4A940000000000CF
:10012000730971097000000042A4A8A8A44200004D
:1001300000002E28E8282800000000000C92D26C55
:10014000202020204000003F7FE0C0C0C0C06000F1
:100150000000FC6090080400000000F00B08F009AB
:100160000AF0000000C0C0C0C0C0C0C0C000000095
:10017000000000000000000000000000000000007F
:10018000000000000000000000000000000000006F
:10019000000000000000000000000000000000005F
:1001A00000000000000000C0F0F8FC3C1C1E1E1EF9
:1001B0001E1C3CFCF8F0C000000000000000000025
:1001C000000000000000FEFFFFFF00000000000034
:1001D00000000000FFFFFFFE000000000000000024
:1001E000000000000000FFFFFFFF00000000000013
:1001F00000000000FFFFFFFF000000000000000003
:1002000000000000000001071F3F7C78F0E0E0E004
:10021000E0F0787C3F1F0F010000000000000000AC
:100220000000000000000000C0C0C0C0E0E0F8FC1A
:10023000FCFC0000000000000000000000000000C6
:100240000000000000000000000101010101FFFFAB
:10025000FFFF0000000000000000000000000000A0
:100260000000000000000000000000000000FFFF90
:10027000FFFF000000000000000000000000000080
:10028000000000000000000060F0F0F0F0F0FFFF60
:10029000FFFFF0F0F0F06000000000000000000040
:1002A00000000000000000783C3C1C1C1E1E1E1EAE
:1002B0001E3C7CF8F8F08000000000000000000008
:1002C000000000000000000000000000000000002E
:1002D0000080E0FFFF7F1F00000000000000000022
:1002E0000000000000000000000080C0E0F0783C4A
:1002F0001F0F0703010000000000000000000000C5
:1003000000000000000078FCFEFFF7F3F1F0F0F0D1
:10031000F0F0F0F0F0F0F0F000000000000000005D
:1003200000000000000000783C3C1C1C1E1E1E1E2D
:100330001E1C3CFCF8F0E000000000000000000083
:10034000000000000000000000000000C0C0C0C0AD
:10035000E0E0703F3F1F07000000000000000000C9
:100360000000000000000000000000000101010189
:100370000103030FFFFEFCE000000000000000008E
:100380000000000000007C7878F0F0F0E0E0E0F0A1
:10039000F0F0787E3F1F0701000000000000000021
:1003A0000000000000000000000000000080C0E02D
:1003B000F078FCFCFCFC00000000000000000000E5
:1003C00000000000000080C0E0F0783E1F0703013D
:1003D0000000FFFFFFFF0000000000000000000021
:1003E00000000000001F1F1F1D1C1C1C1C1C1C1CCF
:1003F0001C1CFFFFFFFF1C1C1C0000000000000075
:1004000000000000000000000000000000000000EC
:100410000000FFFFFF7F0000000000000000000060
:100420000000000000000000FCFCFC1C1C1C1C1C4C
:100430001C1C1C1C1C1C1C1C0000000000000000DC
:100440000000000000000000FFFFFFE0E0E0E0E04F
:10045000E0E0C0C0800000000000000000000000DC
:100460000000000000000000010101000000000089
:1004700001010307FFFFFEF800000000000000007C
:10048000000000000000387878F0F0F0E0E0E0E0F4
:10049000F0F0787E3F1F0F01000000000000000018
:1004A000000000000000000080E0F0F0783C3C1C00
:1004B0001E1E1E1E1E1C000000000000000000008A
:1004C000000000000000F0FEFFFFC3C0E0E0E0F02D
:1004D000F0E0E0E0C0C0800000000000000000008C
:1004E000000000000000FFFFFFFF0100000000000F
:1004F0000000010107FFFFFEF00000000000000007
:1005000000000000000001071F3F7E78F0E0E0E0FF
:10051000E0E0F0783E3F1F07000000000000000010
:100520000000000000001C1C1C1C1C1C1C1C1C1CB3
:100530001C1C1C1C9CFCFCFC3C000000000000007F
:1005400000000000000000000000000000000000AB
:10055000C0E0F8FE3F0F03000000000000000000B4
:10056000000000000000000000000000C0F0FCFFE0
:100570003F0F03000000000000000000000000002A
:100580000000000000000000C0F0FC7F3F0F0300EF
:10059000000000000000000000000000000000005B
:1005A00000000000000080E0F0F83C1C1C0E0E0E65
:1005B0000E1C1C3CF8F0E080000000000000000071
:1005C000000000000000071F3F7FF8F0E0E0C0C01F
:1005D00080C0C0F07F3F1F07000000000000000047
:1005E0000000000000C0F8FCFE1F0703010101032A
:1005F0000307070F3FFEFCF8C000000000000000EA
:100600000000000000000F1F3F7E78F0E0E0E0E017
:10061000E0E0F0787E3F1F070000000000000000CF
:10062000000000000000C0E0F0F83C1C1C1E1E1E74
:100630001E1C3CF8F8F0C0000000000000000000A4
:1006400000000000003EFFFFFFC0000000000000AF
:1006500000000000FFFFFFFE00000000000000009F
:100660000000000000000103070F0F1E1E1C1C1CD1
:100670001C0E0E86FFFFFF3F000000000000000080
:100680000000000000000000F0F0E0E0E0E0F070AA
:1006900078783E1F0F0701000000000000000000F6
:1006A0000000000103FFFF80C060301010002070C8
:1006B000F0F0203030F0E0203030F0E000000000BA
:1006C00080808080888F8F8983878E8C8880888CBB
:1006D0008F8F8880888F8F8880808F8F88808080A0
:1006E00000000000000000000000000808F8F8000A
:1006F00080808080000000000000000000000000FA
:10070000000000000000000000000000407F7F416A
:1007100001017F7F40000000000000000000000099
:1007200000000000000000000000000000000000C9
:100730000000000000000000000078FCFCFCFC78D9
:1007400000000000000000000000000000000000A9
:100750000000000000000000000000000000000099
:100760000000000000000000000000000000000089
:100770000000000000000000000000000000000079
:100780000000000000000000000000000000000069
:100790000000000000000000000000000000000059
:1007A00011241FBECFEFD4E0DEBFCDBF11E0A0E02B
:1007B000B1E0E4E3F4E102C005900D92A030B1078E
:1007C000D9F721E0A0E0B1E001C01D92AE32B2073E
:1007D000E1F73CD52DC614CC823041F0833051F086
:1007E000813011F084EA03C084E801C084EC809376
:1007F000BC0005C084E98093BC0080E0089580912E
:10080000BC0087FFFCCF8091B900887F0895CF930B
:10081000DF93D82FC4E0C15081F080E0DDDF883362
:10082000D1F3883011F0803141F4D093BB0081E0E6
:10083000D3DF803281F3883371F3DF91CF91089554
:1008400083E0CACF8093BB0081E0C6CFCF93DF9314
:10085000C82F80E7DCDF80EBF5DF80E0F3DF80E1AD
:10086000F1DFEEDF82E7D3DFC11109C0C0E2D4E0DF
:1008700080E0E8DF2197E1F7DF91CF91E1CFC13050
:1008800031F0C0E1D2E014C082E7C1DF02C0C0E0B5
:10089000D0E08FEFD7DFD4DF8FE19EE40197F1F74F
:1008A00000C000002196C03294E0D90769F7E4CF78
:1008B0008AEAC8DF85E5C6DF2197D1F7DDCFCF9380
:1008C000DF93D82FC62F80E7A2DF8D2F806BBADF92
:1008D0008C2F8F70B7DF8C2F82958F708061B2DF85
:1008E000DF91CF91ADCF2F923F924F925F926F9257
:1008F0007F928F929F92AF92BF92CF92DF92EF92B0
:10090000FF920F931F93CF93DF93CDB7DEB7299755
:100910000FB6F894DEBF0FBECDBF782E162F4B83D7
:10092000622ECC822A2C8D82682F822FC8DF202F46
:1009300030E03F832E83262D30E03987288796C00C
:10094000672D862DBCDF82E762DF28853985C21AD4
:10095000D30A8AE08C9D90018D9D300D11243A833D
:100960002983260185E0440C551C8A95E1F786E031
:100970008C9D40018D9D900C1124312C73C01A3038
:1009800031F01032B1F0163009F04EC03FC0D50141
:100990008C91843161F0E981FA81EC0DFD1DB4E1A7
:1009A000B89FE00DF11D1124E45BFF4F3BC080E0D8
:1009B0003AC091E0E3E06E1290E081E02D812130B9
:1009C00009F080E08923F601E40DF51D8823A1F0EC
:1009D00031E0331211C0D70111968C91B0E88B9F92
:1009E000E00DF11D1124E056FE4F8491F601E05E0A
:1009F000F84FE4918E0F17C0D5018C91B0E88B9F12
:100A0000E00DF11D1124E056FE4F0CC0F601E80D7B
:100A1000F91DD5018C91BCE0B89FE00DF11D1124AA
:100A2000EC5CFF4F84910EDFEFEFCE1ADE0A05C0BB
:100A3000C12CD12C5701A30CB11CC11608F49FCFB7
:100A4000231419F02C8123110CC0601204C080E61D
:100A5000F9DE80EE03C080E0F5DE80E0F3DE80E0CA
:100A6000F1DE33943B813312E3CF6394C62CD12C57
:100A70002E813F812C153D050CF062CF29960FB6D3
:100A8000F894DEBF0FBECDBFDF91CF911F910F91C4
:100A9000FF90EF90DF90CF90BF90AF909F908F909E
:100AA0007F906F905F904F903F902F90C9CE82E0E3
:100AB0008AB98BB998B1906398B997B19F7C97B96F
:100AC0008093B8001092B9002FEF82E597E0215093
:100AD00080409040E1F700C0000080E798DE82EEA1
:100AE000B1DE84E2AFDE86ECADDE80EAABDE8BEE1B
:100AF000A9DE81E8A7DE80E8A5DE89E8A3DE8FEA2B
:100B0000A1DE9EDE80E0A2CEF894F999FECF92BDE0
:100B100081BDF89A789480B508950F931F93CF9371
:100B2000DF931F92CDB7DEB78C01F894F999FECF11
:100B3000C8016983E9DF6981861731F012BD01BD03
:100B400060BDFA9AF99A78940F90DF91CF911F9136
:100B50000F9108951F93CF93DF93C82F162FD8E0DE
:100B6000812FC0FF02C02BD001C042D0C695D1500A
:100B7000B9F7DF91CF911F9108951F93CF93DF9322
:100B8000182FD8E0C0E0C695812F4BD08111C068E6
:100B9000D150C9F78C2FDF91CF911F910895682F05
:100BA0008CECD8CF97B18095982397B998B19823BA
:100BB00098B98CEB93E00197F1F700C008952FB737
:100BC000F89497B1982B97B998B18095982398B9D4
:100BD0009BE09A95F1F700C097B1982397B998B127
:100BE000982398B986EA8A95F1F700002FBF0895F7
:100BF0002FB7F89497B1982B97B998B1809598230F
:100C000098B99BE99A95F1F700C097B1982397B9E5
:100C100098B1982398B986E18A95F1F700002FBF23
:100C200008953FB7F89497B1982B97B998B1282FAA
:100C30002095922398B99BE09A95F1F700C097B15F
:100C4000922397B998B1922398B923E12A95F1F7A5
:100C500000C096B12EE82A95F1F700003FBF892326
:100C600008953FB7F89497B1982B97B998B1282F6A
:100C70002095922398B9ECEBF3E03197F1F700C09F
:100C800097B1922397B998B1922398B9F6EBFA9558
:100C9000F1F7000096B1E0E3F3E03197F1F700C01F
:100CA0003FBF90958923089510921F0110921E0155
:100CB00010921D0120E003C0885E9340232F322F45
:100CC0003F5F883E43E09407B8F7209320012091CE
:100CD0001D0103C084569109232F322F3F5F8436B4
:100CE0009105C0F720931D0120911E0102C00A97B3
:100CF000232F322F3F5F8A309105C8F720931E01C2
:100D000090911F01980F90931F0108951F920F92C9
:100D10000FB60F9211248F92AF92CF92EF92FF9263
:100D20000F932F933F934F935F936F937F938F9383
:100D30009F93AF93BF93EF93FF93CF93DF93CDB781
:100D4000DEB72C97DEBFCDBFF89480911C018F30A9
:100D500009F01AC110921C0120911801309119015B
:100D600040911A0150911B01809115018130A9F425
:100D7000211531054105510581F01092150160EEF4
:100D80007CE186EB91E00BD320932101309322018B
:100D9000409323015093240108C010922101109226
:100DA000220110922301109224018091210190913F
:100DB00022017ADF8AE0809320018824839405E071
:100DC000A02E85E0C82E9DE1E92E91E0F92E03E0EA
:100DD00020E044E060E280E086DD80911401882319
:100DE00039F029E9829FC0011124892F992702C077
:100DF00080E090E059DF80911D018E8380911E017B
:100E00008F8380911F0188878BE08987812CAA249A
:100E1000A394FFE0CF2EA6E0EA2EF12CEC0EFD1EEF
:100E200007E026E044E06AE082E35DDD80910F01A7
:100E3000909110012091130141E0009709F040E0EA
:100E400031E0211130E0342321F484383EE193076E
:100E500029F410920E0110920D0122C0213828F0C1
:100E600001969093100180930F0120910F01309112
:100E7000100140E050E067E978E980E090E0B1D20D
:100E800066E0629FC001639F900D112490930E0154
:100E900080930D011092100110920F011092130116
:100EA00080910D0190910E01FFDE809120018983D8
:100EB00080911D018A8380911E018B8380911F0187
:100EC0008C838AE08D83812C6FE0A62E7FE0C72E75
:100ED000EE24E394F12CEC0EFD1E07E026E045E045
:100EE0006AE080E000DD80910A0190E0DDDE909113
:100EF0000C0180911E01911114C090910A01943649
:100F000068F48A8780911F018B8780910B0190E0A4
:100F1000CBDE80911F018C8781E00AC090911D017A
:100F200001C09EE09A878B8780911F018C8784E1A6
:100F3000812CA82E8FE0C82E9AE0E92EF12CEC0E21
:100F4000FD1E07E026E043E06AE08DE5CCDC8DE0A5
:100F500080932B0129E0A22E34E0C32E45E2E42E3B
:100F600041E0F42E05E024E047E06AE085E0BBDCE8
:100F7000CC24C39450E0E52E51E0F52E24E043E06C
:100F80006AE08EE4B0DC03C08F5F80931C0178942C
:100F90002C960FB6F894DEBF0FBECDBFDF91CF9178
:100FA000FF91EF91BF91AF919F918F917F916F9141
:100FB0005F914F913F912F910F91FF90EF90CF90C4
:100FC000AF908F900F900FBE0F901F9018951F92AB
:100FD0000F920FB60F9211242F933F934F935F936D
:100FE0006F937F938F939F93AF93BF93F8941092D7
:100FF00085001092840081E08093150120911601F4
:10100000309117012115310579F480918600909176
:101010008700A0E0B0E08093180190931901A0939D
:101020001A01B0931B0117C04091860050918700B0
:10103000AFEFBFEFF1D1640F751F811D911D60935C
:1010400018017093190180931A0190931B0110925B
:10105000170110921601809105018F5F80930501A1
:101060007894BF91AF919F918F917F916F915F9194
:101070004F913F912F910F900FBE0F901F90189599
:101080001F920F920FB60F9211248F939F93F89493
:10109000809116019091170101969093170180930A
:1010A000160178949F918F910F900FBE0F901F9013
:1010B00018951F920F920FB60F9211248F93F894E8
:1010C000809179008093140178948F910F900FBED6
:1010D0000F901F9018951F920F920FB60F92112428
:1010E0002F938F939F93F894209170002130B9F43F
:1010F000109270008091B200809313011092B200A0
:1011000080911101909112019093100180930F0131
:1011100010921201109211012093700003C081E01F
:101120008093700078949F918F912F910F900FBEB4
:101130000F901F9018951F920F920FB60F921124C7
:101140008F939F93F89480911101909112010196D1
:10115000909312018093110178949F918F910F9039
:101160000FBE0F901F901895CF93DF93C0E009C07A
:101170008C2F90E0C9DCEC2FF0E0EB5DFE4F80831C
:10118000CF5FC830A8F3809128018F3F59F4C0E0A9
:10119000D0E060E0CE01C1DC2196C830D105C9F7AE
:1011A000C0E0E6CFDF91CF91089580910301909147
:1011B000040120E003C0845691092F5F8436910515
:1011C000D0F7909304018093030180912A01820F4C
:1011D00080932A0190910201920F9A3019F0909316
:1011E000020107C010920201909101019F5F90934C
:1011F0000101909101019A3039F41092010190910E
:1012000000019F5F90930001909100019A3011F4CA
:10121000109200018A30C9F410922A0180912901AC
:101220008F5F809329018A3081F4EAE2F1E0A8E23D
:10123000B1E082918A3021F410828C918F5F8C937F
:10124000119781E0E632F807A1F70895CF93DF9375
:1012500000D000D0CDB7DEB787DF05E005BD11E0D7
:1012600010936E001092800082E48093810081E2EE
:1012700080936F001092B00082E08093B100809361
:1012800069001DBB87E680937C008FEC80937A0019
:1012900080E880BF82E086DC789409DC0B838AE0FA
:1012A0008C8319821A83812C2AE0A22E3AE0C32E65
:1012B000EE24E394F12CEC0EFD1E24E041E066E008
:1012C00089E711DB1983EE24E394F12CEC0EFD1E6B
:1012D00007E026E041E066E08EE705DB82E0C1DC66
:1012E00082E05DDC62E084E435DC82E09ADC882325
:1012F000E1F382E0B6DC82E052DC62E08EEB2ADCD5
:1013000082E03BDC8093080182E037DC80930901B6
:1013100087FF15C0782E612C809108019301282B3E
:10132000C9019195819591099093070180930601D8
:10133000809308019093090110930C0102C0109250
:101340000C012091080180910901877030E1839F91
:10135000C0011124922F92959F70982B90930A01AF
:10136000922F9F70892F880F28E0929F800D112463
:1013700082958F7080930B0120910501243668F0CF
:101380008091030190910401805B9F4F9093040131
:101390008093030124562093050107DF9FCFA1E22C
:1013A0001A2EAA1BBB1BFD010DC0AA1FBB1FEE1FDF
:1013B000FF1FA217B307E407F50720F0A21BB30B2A
:1013C000E40BF50B661F771F881F991F1A9469F7A6
:1013D00060957095809590959B01AC01BD01CF0102
:1013E0000895052E97FB16F4009406D057FD0CD0F7
:1013F000D6DF07FC09D07EF49095809570956195B5
:101400007F4F8F4F9F4F0895509540953095219570
:101410003F4F4F4F5F4F0895A29FB001B39FC00150
:10142000A39F01D0B29F700D811D1124911D0895BD
:04143000F894FFCF5E
:00000001FF
