:020000040800F2
:10000000B8060020690100087101000873010008AA
:1000100000000000000000000000000000000000E0
:100020000000000000000000000000007501000852
:1000300000000000000000007701000879010008BE
:100040007B0100087B0100087B0100087B010008A0
:100050007B0100087B0100087B0100087B01000890
:100060007B0100087B0100087B0100087B01000880
:100070007B0100087B0100087B0100087B01000870
:100080007B0100087B010008000000007B010008E4
:100090007B0100087B0100087B0100087B01000850
:1000A0007B0100087B0100087B0100087B01000840
:1000B0007B010008000000007B0100080000000038
:1000C00000F002F800F040F80CA030C808382418FE
:1000D0002D18A246671EAB4654465D46AC4201D180
:1000E00000F032F87E460F3E0FCCB6460126334272
:1000F00000D0FB1AA246AB46334318471C3C000015
:100100003C3C0000103A02D378C878C1FAD85207B4
:1001100001D330C830C101D504680C6070470000BD
:100120000023002400250026103A01D378C1FBD813
:10013000520700D330C100D50B6070471FB5C046D1
:10014000C0461FBD10B510BD02F0B2FE1146FFF74C
:10015000F5FF00F025F802F0CAFE03B4FFF7F2FF46
:1001600003BC02F0CBFE0000074880470748004769
:10017000FEE7FEE7FEE7FEE7FEE7FEE70448054987
:10018000054A064B704700000F100008C100000828
:10019000B8000020B8060020B8020020B8020020F5
:1001A00000F0A0FB00F01DF9FF20013051498861EB
:1001B000FF202D3000F0F3F900F0FEF9642000F08C
:1001C000EEF9FF2001304C4988617D20C00000F02D
:1001D000E6F9FF2001304849203108817D20C00028
:1001E00000F0DDF9002000F00AFA01F0EFFE80E0F7
:1001F00001F02AFF1021414801F071FF404800F052
:10020000CEF901F021FF20223E493F4801F08EFF48
:1002100000203E49088010203D49086018E0394818
:100220003B490968405CFF2808D1384800884010E5
:100230000121C90340183549088004E0334800888B
:1002400040103249088032480068401C304908603C
:100250002F4800682028E2D32C48028800213C2047
:1002600000F0DAFB294800880121C903084206D1C1
:1002700001232B2219463C2000F0DAFA0BE001237F
:100280002D2219463C2000F0D3FA20480088C043B4
:10029000401C1E4908801D480488E017000F001903
:1002A00002110121432000F0B7FB01232E22194641
:1002B0004F2000F0BDFA154800780007000F1349E1
:1002C00008800846008840000988C90040180F4986
:1002D000088008460088001108800846028801212D
:1002E000542000F099FB0123BF2219465F2000F043
:1002F0009FFA7DE70004004800080048E83600083F
:10030000581B000038000020F836000800000020CC
:1003100004000020F8B504460E46154601204003AF
:10032000C302012221460090A24800F02BFD00BF2D
:10033000A048806902210842FAD031469D4800F069
:10034000B9FD00BF9B48806980210842FAD0012195
:10035000984800F091FC00BF96488069022108424D
:10036000FAD02946934800F0A5FD0021914800F0FD
:1003700091FC00BF8F48806920210842FAD02020DC
:100380008C49C861F8BD38B504460D4601204003CC
:10039000C302012221460090864800F0F3FC00BF12
:1003A0008448806902210842FAD00121814800F086
:1003B00063FC00BF7F48806902210842FAD02946C9
:1003C0007C4800F077FD00217A4800F063FC00BF14
:1003D0007848806920210842FAD020207549C861F8
:1003E00038BD00B587B0002001F02AF8012148058A
:1003F00001F03AF9684600F0A1FB00200590069054
:10040000019002900390052004906946694800F02D
:1004100064FB0121674800F09DFB07B000BDF8B503
:1004200005460C461646002700BF2CE0012040037D
:10043000C3020122294600905E4800F0A3FC00BFE1
:100440005C48806902210842FAD00121594800F035
:1004500013FC00BF5748806902210842FAD0217876
:10046000641C544800F026FD0021524800F012FCA4
:1004700000BF5048806920210842FAD020204D4911
:10048000C861781CC7B2B742D0DBF8BDF8B50646E4
:100490000C46154600271EE009208002EAB201231F
:1004A0005B0631460090434800F06CFC00BF4148B9
:1004B000806904210842FAD03E4800F0FDFC20701B
:1004C000641C00BF3B48806920210842FAD02020EC
:1004D0003849C8617F1CAF42DED3F8BDFEB5064681
:1004E0000F4615460020019000BF0121C903314885
:1004F00000F0F0FC0128F8D00920800201235B06FF
:100500002A46314600902B4800F03CFC002413E0C2
:1005100000BF0421274800F0DDFC0028F9D0012DA0
:1005200004DD244800F0C8FC385503E0214800F001
:10053000C3FC0190601CC4B2AC42E9DB00BF2021C7
:100540001C4800F0C7FC0028F9D02021194800F011
:10055000CFFC0198FEBD38B5044609208002012376
:100560005B06012221460090124800F00BFC00BF00
:100570000421104800F0AEFC0028F9D00D4800F02E
:100580009BFC054600BF20210A4800F0A3FC002880
:10059000F9D02021074800F0ABFC284638BD0021E7
:1005A00001E0521C491CFF23E13343438B42F8DC3A
:1005B00070470000005400403EB5E22168460170DB
:1005C00024214170C6218170A021C170EB210171ED
:1005D00081214171802181718921C171AF21017215
:1005E000002409E06846015D7020FFF7CCFE0A2078
:1005F000FFF7D5FF601CC4B2092CF3DB3EBD70B51C
:100600000546B0217020FFF7BEFE00217020FFF7E5
:10061000BAFE10217020FFF7B6FE002D0CD1002489
:1006200005E000217220FFF7AEFE601C84B221209D
:1006300040018442F5DB24E0012D12D100240BE0BF
:10064000002C03D0FF217220FFF79DFEFF217020B8
:10065000FFF799FE601C84B2212040018442EFDB49
:100660000FE0002409E0AA217220FFF78CFE55213B
:100670007220FFF788FE601C84B2212000018442B2
:10068000F1DB70BDF8B506460C46B0203043694634
:1006900008702107090F684641702411102020437B
:1006A00069468870002506E06846415D7020FFF7C6
:1006B0006AFE681CC5B2032DF6DBF8BDFEB5064622
:1006C0000C4617462046E117490F0918C910C90002
:1006D000611AC9B201912046E117490F091849056D
:1006E000090E029131460298FFF7CCFF7220FFF706
:1006F00032FF7220FFF72FFF009031460298FFF77C
:10070000C1FF0125294601988140CDB2012F02D1B8
:100710000098054302E00098A84305462946722048
:10072000FFF731FEFEBDF8B505460E4617462C46CE
:1007300006E0012239462046FFF7C0FF601CC4B224
:10074000B442F6DBF8BDFFB58BB000BF614C624D23
:100750000020059050E00D9801F0DDFF039102901C
:100760002046294602F01EFF01910090039B029A49
:1007700001F0D4FF06460F460D9801F0CCFF03911F
:1007800002902046294602F05DFF01910090039BF4
:10079000029A01F0C3FF0991089000224F4B2046B6
:1007A000294601F03EFF04460D460B9801F0B3FFC9
:1007B00032463B460191009001F033FF03910290D5
:1007C00001F05CFFC0B207900C9801F0A4FF01910A
:1007D0000090099B089A01F024FF0391029001F018
:1007E0004DFFC0B206900E9A06990798FFF766FF74
:1007F0000598401C80B20590FF21913105988842F0
:10080000A9DB0FB0F0BD552101404900AA220240EA
:10081000521011430846CC21014089103322024076
:10082000920011430846011102011143C8B27047FA
:10083000FFB581B006460F4603980446203CA00051
:10084000201884B20498012803D131463846FFF7B6
:1008500019FF2349085DFFF7D6FF0146009072207B
:10086000FFF791FD601C84B201250CE01C49085D76
:10087000FFF7C9FF014600907220FFF784FD601C5E
:1008800084B2681CC5B2052DF0DB05B0F0BDFFB524
:1008900081B0074615461E4600242A5D01233846CE
:1008A0000299FFF7C5FF00217220FFF76CFD0124BC
:1008B0000BE02A5D002338460299FFF7B9FF0021BB
:1008C0007220FFF760FD601CC4B2B442F1DB05B0DA
:1008D000F0BD00007B14AE47E17A643F0000F03FBA
:1008E000183700081CB50121880400F0A1FE012181
:1008F000C80400F09DFE684601F046FAFF20013072
:10090000009001216846017100218171C1710321AC
:1009100041716946184801F0EFF9684601F034FA70
:10092000FF20013000900121684601710021817192
:10093000C171032141716946104801F0DDF90122BE
:1009400006210D4801F05FFA012207210A4801F053
:100950005AFA684601F018FA022168460171C0206F
:10096000009001216846C17181710321417169467E
:10097000014801F0C1F91CBD00040048000800480E
:100980000021444A117051709170D170117107E0CB
:100990004149411A88B23F490978491C3D4A1170C2
:1009A0003D498842F4DA08E07D21C900411A88B245
:1009B00038494978491C374A51707D21C90088421D
:1009C000F2DA07E00146643988B232498978491C75
:1009D000304A91706428F5DA07E001460A3988B296
:1009E0002C49C978491C2B4AD1700A28F5DA06E04F
:1009F000411E88B227490979491C264A11710128EC
:100A0000F6DA70470EB5014624A30DCB029301928E
:100A100000906846405C0EBDF7B584B007461646A8
:100A2000002400200390019002903046FFF7A8FFB9
:100A300000251BE01748405D00280AD01549485D95
:100A4000FFF7E0FF01A90855601CC4B20120039024
:100A50000AE00398012807D10E49485DFFF7D2FF4D
:100A600001A90855601CC4B2681CC5B2052DE1DBA4
:100A7000002C06D0234601AA38460599FFF707FF48
:100A800005E0234601AA38460599FFF700FF07B0A5
:100A9000F0BD00000C000020102700003031323380
:100AA000343536373839000010B50446FB488442E7
:100AB00009D10121480500F001FE00210120400577
:100AC00000F0FCFD08E00121880500F0F7FD0021A1
:100AD0000120800500F0F2FD10BD10B50A4600218E
:100AE00003685B085B0003600168ED4B1940946884
:100AF000240253682343194301600F24240613681A
:100B0000A343036103680124234303600021816040
:100B1000C160146993692343194681608368012485
:100B2000E40323438360D16803680B430360416897
:100B3000DC4B194053691943416010BD002101602D
:100B400041608160C16001610121C90341610021EF
:100B500081617047002904D0026801231A430260B2
:100B600003E002685208520002607047002905D075
:100B7000026801235B031A43026004E00268012358
:100B80005B039A4302607047002A03D003680B435B
:100B9000036002E003688B4303607047002905D0BF
:100BA000026801235B049A43026004E002680123A7
:100BB0005B041A4302607047002905D002680123D4
:100BC0009B041A43026004E0026801239B049A43D9
:100BD00002607047002905D0C2680123DB031A4375
:100BE000C26004E0C2680123DB039A43C26070471D
:100BF00070B50B460021C168AB4C2140FE241C405F
:100C000015020726360235402C432143C16070BDD2
:100C1000002905D002680123DB041A43026004E0C6
:100C200002680123DB049A4302607047002905D063
:100C3000026801231B041A43026004E002680123D6
:100C40001B049A43026070470A4600214168890AE2
:100C5000890293059B0D194341607047002905D017
:100C600042680123DB021A43426004E04268012328
:100C7000DB029A4342607047002905D04268012395
:100C80005B061A43426004E0426801235B069A4314
:100C900042607047002905D0426801231B061A43B1
:100CA000426004E0426801231B069A434260704799
:100CB00010B50A4600214168FF2424040B46A343D3
:100CC0001946130423401943416010BD002905D182
:100CD000426801239B029A43426004E04268012378
:100CE0009B021A4342607047002905D042680123E5
:100CF0005B031A43426004E0426801235B039A43AA
:100D000042607047002905D0426801239B031A43C3
:100D1000426004E0426801239B039A4342607047AB
:100D2000002905D0426801231B031A43426004E0F6
:100D3000426801231B039A4342607047002905D093
:100D400042680123DB039A43426004E042680123C6
:100D5000DB031A4342607047014688697F225204D0
:100D60001040000C704710B50146002200208B692E
:100D70000124240423401A46002A00D101E0012066
:100D8000800210BDF0B50C4600214168474D294056
:100D9000A505AD0D1604FF273F043E4035431D4316
:100DA000059E354329434160F0BD002905D0026806
:100DB00001239B051A43026004E0026801239B059E
:100DC0009A4302607047002905D042690123DB0382
:100DD0001A43426104E042690123DB039A43426102
:100DE0007047002905D042690123DB071A4342619D
:100DF00003E042695200520842617047002905D061
:100E0000426901231B031A43426104E04269012342
:100E10001B039A43426170470A4600214169090B4E
:100E2000090313051B0D19434161704710B50A46AC
:100E3000002141691E4B194013041D4CE44323401B
:100E40001943416110BD002905D002680123DB056B
:100E50001A43026004E002680123DB059A43026042
:100E60007047002905D0026801239B061A430260DF
:100E700004E0026801239B069A4302607047014622
:100E8000086AC0B2704708B5024600200090009280
:100E90000098401800900098006808BD0054004079
:100EA000FFE0CF00FF7FFF0701F8FFFF009800FC85
:100EB000FFFF00F0816270470146486AC0B2704788
:100EC000002A03D003680B43036002E003688B43EE
:100ED0000360704710B502460023002093691C464A
:100EE0000C402346002B01D0012000E0002010BD63
:100EF000C161704770B502460023002000243F25E1
:100F00002D02294204D01568802635402C460AE07F
:100F1000C025294204D01568402635402C4602E001
:100F200015680D402C4693691D460D402B46002B3D
:100F300003D0002C01D0012000E0002070BDC16171
:100F4000704700000CB500200190009072480068C6
:100F50000121090408437049086000BF6E48006819
:100F600001214904084000900198401C019000981C
:100F7000002804D10521090201988842EED1664873
:100F8000006801214904084202D00120009001E0DC
:100F9000002000900098012838D111205F49086096
:100FA0005D4840685C4948600846406848600846BB
:100FB00040683F2109048843574948600846406813
:100FC000112109040843544948600846006801217A
:100FD000090608435049086000BF4F4800680121D6
:100FE00049060842F9D04C484068800880004A49C8
:100FF000486008464068022108434749486000BFEE
:10100000454840680C2108400828F9D10CBD10B5AE
:1010100041480068012108433F490860084640688C
:101020003F4908403C494860084600683D4908403F
:101030003949086008460068012189048843364917
:101040000860084640683F210904884332494860E7
:101050000846C06A00090001C8620846006BFF210B
:10106000543188432C4908630846406B40084000CF
:10107000486300208860FFF765FF10BDF8B50025C4
:10108000002400260027244840680C21084005461B
:10109000002D04D0042D06D0082D2AD107E02248C7
:1010A0002249086029E020482049086025E01A48C4
:1010B00040680F2189040840044617484068012110
:1010C000090408400646A00C841C002E04D11848D0
:1010D0006043164908600BE00F48C06A0007000F24
:1010E000471C3946104801F073F860430F49086007
:1010F00003E00D480D49086000BF00BF0648406886
:10110000F021084000090B490D5C08480068E840E0
:1011100006490860F8BD00000010024000200240AF
:101120000CB8FFF8FFFFF6FE00127A001400002052
:1011300000093D0018000020FD4800680121084317
:10114000FB49086008464068FA490840F849486089
:1011500008460068F8490840F549086008460068F4
:10116000012189048843F2490860084640683F210C
:1011700009048843EE4948600846C06A0009000136
:10118000C8620846006BFF2154318843E849086370
:101190000846406B40084000486300208860704764
:1011A0000021E34A917011468870704710B50246DD
:1011B0000021002300205111002902D1DC4C2368BA
:1011C0000BE0012902D1DA4C236A06E0022902D1A0
:1011D000D74C636A01E0D64C636BD106C90E01247B
:1011E0008C401C4201D0012000E0002010BD38B529
:1011F000002000900024002500BF1120FFF7D6FF3B
:1012000005460098401C009005210902009888427C
:1012100001D0002DF1D01120FFF7C8FF002801D028
:10122000012400E00024204638BD01460020C04AC9
:101230001068F82302469A431046CA001043BC4A7D
:1012400010607047002806D0B9490968012211438F
:10125000B74A116005E0B649096849084900B44A2F
:101260001160704701460020B14A506BF8230246D6
:101270009A431046CA001043AD4A50637047002895
:1012800006D0AB49496B01221143A94A516305E0DD
:10129000A749496B49084900A54A5163704700288E
:1012A00006D0A349496B04229143A14A516305E04A
:1012B0009F49496B042211439D4A516370479C49E1
:1012C000096A490849009A4A11621146096A0422CA
:1012D0009143974A11621146096A014311627047AE
:1012E0009349096A18229143914A11621146096A89
:1012F000014311627047002806D08D49496A0122D6
:1013000011438B4A516205E08949496A49084900FD
:10131000874A51627047864A52683D231B049A43AC
:10132000834B5A601A46526803460B431A43804B5C
:101330005A607047002807D07D49096801221206CB
:1013400011437B4A116006E07949096801221206BF
:101350009143774A1160704701460020744AD06A71
:101360000009000102460A431046714AD0627047E4
:10137000002807D06E4909680122D20411436C4A43
:10138000116006E06A4909680122D2049143684A63
:10139000116070476649C871704701460020644A71
:1013A00050688008800002460A431046604A506038
:1013B00070475F4840680C21084070470146002094
:1013C0005B4A5068F02302469A43104602460A439D
:1013D0001046574A5060704701460020544A5068F2
:1013E00007231B0202469A43104602460A43104650
:1013F0004F4A506070474E49496801229203914319
:101400004B4A51601146496882B21143484A5160C3
:101410001146096B92159143454A11631146096BB8
:10142000020C1143424A116370474149096B402243
:1014300091433F4A11631146096B014311637047A1
:101440003B49096B10229143394A11631146096BDC
:101450000143116370473649096B89088900344A92
:1014600011631146096B014311637047FEB50446D1
:101470000025002600200190009000272C4840689D
:101480000C2108400546002D04D0042D05D0082D60
:1014900028D105E02948206027E02848206024E082
:1014A000234840680F2189040840064620484068C8
:1014B0000121090408400190B00C861C0198002805
:1014C00003D11F48704320600BE01948C06A000731
:1014D000000F401C00901948009900F079FE7043FD
:1014E000206002E01548206000BF00BF104840683F
:1014F000F021084005462D091248475D2068F84054
:1015000060600B48406807210902084005462D0A23
:101510000C48475D6068F840A0600548006BFF21FB
:1015200001310840884211D00748E0601CE000000B
:10153000001002400CB8FFF8FFFFF6FE00127A0020
:1015400000093D0028000020809FD50074484068B5
:10155000012189030840884203D0A0684008E06068
:1015600002E0A0688008E0606D48006B4021084000
:10157000402802D06B48206102E00120C0032061B6
:101580006748006B10210840102802D0664860614F
:1015900001E0206860616248006B8007800F02D123
:1015A000A068A06119E05E48006B8007800F0128E9
:1015B00002D12068A06110E05948006B8007800FBD
:1015C000022802D18003A06107E05548006B800724
:1015D000800F032801D15448A061FEBD5049096A1B
:1015E00001434F4A11627047002807D04C49096AED
:1015F0000122D20311434A4A116206E04849096AAE
:101600000122D2039143464A11627047002807D055
:101610004349096A012212041143414A116206E05A
:101620003F49096A0122120491433D4A1162704701
:10163000002905D03A4A52690243394B5A6104E005
:10164000374A52698243364B5A617047002905D0A8
:10165000334A92690243324B9A6104E0304A9269FC
:1016600082432F4B9A617047002905D02C4AD269DA
:1016700002432B4BDA6104E0294AD2698243284BAA
:10168000DA617047002905D0254A926A0243244B4B
:101690009A6204E0224A926A8243214B9A6270471E
:1016A000002905D01E4AD26802431D4BDA6004E0CF
:1016B0001B4AD26882431A4BDA607047002905D072
:1016C000174A12690243164B1A6104E0144A126960
:1016D0008243134B1A617047002905D0104A527A91
:1016E00002430F4B5A7204E00D4A527A82430C4B6C
:1016F0005A7270470A48406A01210906084308499E
:101700004862704701460020054A92680A4201D0AB
:10171000012000E0002070470149887270470000F6
:10172000001002401280000000127A0010B504463A
:10173000F948844209D101218803FFF7B1FF002154
:1017400001208003FFF7ACFF0BE0F448844208D18E
:1017500001214804FFF7B2FF002101204004FFF7F8
:10176000ADFF10BDF0B589B004460D46002700203E
:101770000890002620684008400020606668032129
:101780000903304688430646A86806436660266813
:10179000E3480640E9686868084329690843064346
:1017A0002660A66803210902304688430646686918
:1017B0000643A66001A8FFF759FED748844202D12C
:1017C0000798089001E00398089020680121C90358
:1017D00008420CD02968089A500000F0F9FC07462E
:1017E0002968089A500000F0F3FC0E4609E02968C9
:1017F000089800F0EDFC07462968089800F0E8FC1E
:101800000E4628684008B04200D87F1C206801219D
:10181000C903084206D03807460F3846C149084078
:1018200030430746A78109B0F0BD4B21C9010160D3
:10183000002141608160C1600C2101610021416192
:10184000704710B5002242680F2424021346A343B8
:101850001A464C680B6823438C682343CC682343A7
:101860001A43426010BD0021016041608160C16087
:101870007047002904D0026801231A43026003E084
:1018800002685208520002607047002A03D00368C1
:101890000B43036002E003688B4303607047002939
:1018A00005D002680123DB031A43026004E00268EA
:1018B0000123DB039A4302607047002905D0826848
:1018C0000123DB021A43826004E082680123DB0209
:1018D0009A4382607047002905D042680123DB04E7
:1018E0001A43426004E042680123DB049A434260E9
:1018F0007047002905D0426801239B041A434260C7
:1019000004E0426801239B049A4342607047002A26
:1019100003D043680B43436002E043688B4343605A
:101920007047002905D042680123DB031A43426057
:1019300004E042680123DB039A43426070470029B8
:1019400005D042680123DB051A43426004E0426887
:101950000123DB059A43426070474269120E12066A
:10196000426142690A4342617047028AFF231B02B7
:101970001A400282028A0A4302827047002904D078
:10198000026802231A43026003E0026802239A43BA
:1019900002607047826803231B059A438260826855
:1019A0000A4382607047002905D0426801231B0565
:1019B0001A43426004E0426801231B059A434260D7
:1019C0007047426803235B059A43426042680A43BA
:1019D00042607047CA05D20D028570470146888C67
:1019E000C005C00D704742681202120A4260426888
:1019F0000B061A4342607047002905D00268012394
:101A00005B031A43026004E0026801235B039A430C
:101A10000260704702680123DB029A430260026899
:101A20000A4302607047426810239A43426042684A
:101A30000A4342607047426820239A4342604268EA
:101A40000A4342607047002905D0426801239B0386
:101A50001A43426004E0426801239B039A434260B8
:101A60007047002904D0826808231A43826003E08B
:101A7000826808239A4382607047028AD2B2028247
:101A8000028A0B021A4302827047002904D082683E
:101A900020231A43826003E0826820239A438260F5
:101AA0007047002904D0826810231A43826003E043
:101AB000826810239A4382607047826807235B0420
:101AC0009A43826082684B041A438260704742697D
:101AD0001202120A426142690B061A4342617047C0
:101AE000826804239A43826082680A438260704756
:101AF000002904D0826802231A43826003E08268CE
:101B000002239A438260704700290DD08268012326
:101B10009B031A4382600CE00038014000440040FF
:101B2000F3E9FFFFF0FF0000826801239B039A4363
:101B30008260704782680123DB039A438260826877
:101B40000A438260704702681F235B059A43026064
:101B500002684B051A430260704702681F231B048A
:101B60009A43026002680B041A4302607047002A1D
:101B700003D083680B43836002E083688B438360F8
:101B80007047826801235B039A43826082680A433C
:101B900082607047F8B503460024002600960025B1
:101BA000002018460E04340ECEB200960127009E87
:101BB000B7403D46022C01D1001D02E0032C00D1AC
:101BC0000830002A03D006682E43066002E006684B
:101BD000AE430660F8BD002A03D0038B0B4303839A
:101BE00002E0038B8B4303837047826801231B034E
:101BF0009A43826082680A438260704702460020EE
:101C0000D3690B4201D0012000E00020704701623F
:101C1000704770B502460B460024002100250020C5
:101C20001E04350ED9B201268E403146012D02D157
:101C30001668314006E0022D02D15668314001E0BD
:101C4000966831401C0C0126A6403446D6693440C3
:101C5000002903D0002C01D0012000E0002070BD3D
:101C600010B5002300220B0C01249C402246026286
:101C700010BD000010B504460920C006844209D1F9
:101C800001214804FFF7FEFC002101204004FFF77A
:101C9000F9FC30E06D48844208D101210002FFF7D1
:101CA000F1FC00212002FFF7EDFC24E068488442AB
:101CB00008D101210002FFF7E5FC00212002FFF717
:101CC000E1FC18E06348844209D101210805FFF7CF
:101CD000D9FC002101200005FFF7D4FC0BE05E4891
:101CE000844208D101218805FFF7CCFC00210120A6
:101CF0008005FFF7C7FC10BDF0B50A4600210023A0
:101D0000002400BF3DE001258D402B4615681D4095
:101D10002C469C4234D11579012D02D01579022D23
:101D200016D185684F000326BE40B54385605579BE
:101D30004E00B540866835438560858801268E4013
:101D4000B5438580858896798E40B6B235438580C7
:101D500005684F000326BE40B543056015794E0067
:101D6000B540066835430560C5684F000326BE4090
:101D7000B543C560D5794E00B540C6683543C560EA
:101D8000491C1029BFD3F0BD344901600021017105
:101D90000221417100218171C171704708B5012292
:101DA00012040092009A0A430092009AC261C16133
:101DB000009AC261C2690092C269009208BD0246DF
:101DC0000020138A0B4201D0012000E00020704760
:101DD0000146088A704702460020938A0B4201D0D0
:101DE000012000E0002070470146888A7047816129
:101DF000704701857047002A01D0816100E00185AC
:101E0000704781827047F0B5002300244D07EE0E25
:101E10001546B5402B46CD10AE0005462035AD59D0
:101E20004E07F70E0F26BE40B543CE10B60007464C
:101E30002037BD51CD10AE003D46AD591D432C4657
:101E4000CD10AD003E467451F0BD000000040048C6
:101E500000080048000C004800140048FFFF000084
:101E60000168574A114001600021016041608160B2
:101E7000C1605449884208D15249083949680F2243
:101E80001143504A083A516035E04E4914318842B6
:101E900008D14C4908394968F0221143494A083AA7
:101EA000516028E047492831884209D1454908391D
:101EB00049680F2212021143424A083A51601AE05F
:101EC00040493C31884209D13E49083949680F22CE
:101ED000120311433B4A083A51600CE03949503132
:101EE000884208D13749083949680F221204114342
:101EF000344A083A5160704710B500220268324BEC
:101F00001A400C6A8B6823430C6923434C692343B2
:101F10008C692343CC6923434C6A23438C6A234353
:101F20001A430260CB6843600B6883604B68C360F0
:101F300010BD0021016041608160C16001614161AB
:101F40008161C1610162416281627047002904D0F0
:101F5000026801231A43026003E00268184B1A402A
:101F600002607047416070470146486880B2704720
:101F7000002A03D003680B43036002E003688B432D
:101F800003607047014600200E4A083A12680A4270
:101F900001D0012000E0002070470A49083948605C
:101FA000704701460020074A083A12680A4201D0E9
:101FB000012000E00020704702490839486070475E
:101FC000FEFF0000080002400F80FFFF00B589B04F
:101FD00001214804FFF72CFB01214804FFF744FBD3
:101FE00001210846FFF724FB012202210920C00637
:101FF000FFF709FF012203210920C006FFF703FFB5
:102000000C200190032168464172022101720021D7
:1020100081720121C17201A90920C006FFF76CFE7F
:102020004B20C0010390002004900590069008907A
:102030000C20079003A96448FFF794FB0121624834
:10204000FFF717FC09B000BD10B586B00022C02113
:102050005D48FFF78CFD5C48FFF768FB4B20C00133
:102060000090002001900290039005900C200490B5
:1020700069465548FFF776FB01215348FFF7F9FB06
:1020800040215148FFF7C3FDF0214F48FFF7A2FC64
:1020900000BF40214C48FFF7B1FD0028F9D04A4865
:1020A000FFF79CFCC4B24848FFF740FBE120400228
:1020B0000090002001900290039005900C20049065
:1020C00069464148FFF74EFB01213F48FFF7D1FB2E
:1020D000F02C02D0012006B010BD0020FBE730B587
:1020E0008BB005460C463948FFF7BAFE3648283013
:1020F000009001951020029003940020049080200D
:102100000590002006900790089009900A90694673
:102110002E48FFF7F1FE012280212B48FFF727FD13
:1021200001212A48FFF712FF0BB030BD70B58CB00B
:1021300005460E46144625481430FFF791FE224806
:102140002430019002960020039004940590802092
:10215000069000200790089009900A900B9001A922
:102160001A481430FFF7C8FE1848FFF779FE1648E2
:1021700028300190029510200390049400200590CF
:102180008020069000200790089009900A900B90FC
:1021900001A90E48FFF7B0FE0122C0210A48FFF74F
:1021A000E6FC012109481430FFF7D0FE0121074861
:1021B000FFF7CCFE00BF01204004FFF7E3FE00283C
:1021C000F9D00CB070BD0000004400404400024053
:1021D000002203098B422CD3030A8B4211D3002324
:1021E0009C464EE003460B433CD4002243088B42FE
:1021F00031D303098B421CD3030A8B4201D394468B
:102200003FE0C3098B4201D3CB01C01A524183097D
:102210008B4201D38B01C01A524143098B4201D337
:102220004B01C01A524103098B4201D30B01C01A62
:102230005241C3088B4201D3CB00C01A52418308DC
:102240008B4201D38B00C01A524143088B4201D309
:102250004B00C01A5241411A00D201465241104669
:1022600070475DE0CA0F00D04942031000D34042DE
:10227000534000229C4603098B422DD3030A8B4214
:1022800012D3FC22890112BA030A8B420CD38901B2
:1022900092118B4208D3890192118B4204D3890198
:1022A0003AD0921100E08909C3098B4201D3CB01D6
:1022B000C01A524183098B4201D38B01C01A52418B
:1022C00043098B4201D34B01C01A524103098B428F
:1022D00001D30B01C01A5241C3088B4201D3CB007A
:1022E000C01A524183088B4201D38B00C01A52415D
:1022F000D9D243088B4201D34B00C01A5241411A34
:1023000000D20146634652415B10104601D3404261
:10231000002B00D54942704763465B1000D3404212
:1023200001B50020C046C04602BD704770477047E7
:10233000F0B50C46871A9C410D46861A9D4103D282
:10234000C01BA141D21963410D0D1F0DC64EEC1BE0
:10235000AE435BD07F057F0D0026002F50D02D05AA
:10236000AC46A943DD020123ED0A1B051D432023D2
:102370001B1B23D41746E740381871412F46E7400E
:10238000CC199D402818314661410C0D26D161447D
:102390009A4012D50023401C594152000DD14008EB
:1023A0004000B24A4B00934207D30520400708186B
:1023B00001D5511000E0AE493046F0BD6B00002A57
:1023C00000D001229A18203C1F231B1B01D500239B
:1023D00002E0E540281871410C0DD8D001242405F5
:1023E0000919C407CD0740084908E40F2843614490
:1023F000002CD6D00024401C61419A40D1D1CEE7B8
:102400006A05520DD9D1C90FC907D5E7974D4E00BE
:10241000002801D0012400E0002434195F00002AC4
:1024200001D0012600E00026BE19924FAC420BD825
:10243000AE4209D8B44205D0BD00AC42BDD0104672
:102440001946F0BD9942FCD000203946F0BDF0B5E8
:102450001FB40C460F46811A9F412546861A9D419E
:1024600006D20125ED076F40401ABC4152187B414E
:10247000210D1E0D8D1BAC467B4D8D437ED0750509
:102480006D0D7CD00D05AE46AC431B031B0B7A4D86
:1024900052429D41202366469B1B14D31746F740AA
:1024A000381800260090744160462F460741E41911
:1024B00000989D402818664116D4714671189A40BC
:1024C00025D5012320E093182A466A415200002BAB
:1024D00000D0521C203E1E239B1B002B61DD35418A
:1024E000EE1728186641E8D5001876415B1C9A4023
:1024F00000D3401C4B05F3181524E34010D3002BE8
:1025000052D071467118D30FC01802D3491C05B0C0
:10251000F0BD0123DB079A42F9D140084000F6E7FD
:1025200001225205B21801D1002853D00123CC0A50
:10253000DB029943891E002A08D1020C03D0020C49
:102540000004103902E00246002020390023550B18
:1025500005D112020823550B01D152010D23550C50
:1025600001D112011B1DD50C01D192009B1C150D30
:1025700001D152005B1C2025EE1A01E02CE022E084
:102580000546F54015439840CA1AE1076918130536
:10259000C918002ABBDA032040070818C10FC90771
:1025A0000FE071466118B2E7F10740080843711067
:1025B00071444A000CD001235B059A42A7D2C90F8F
:1025C000C9070020A3E74905490D25D1002001E0F6
:1025D0000028F4D100219AE7244D6600002801D09C
:1025E000012100E0002171185F00002A01D00126BE
:1025F00000E00026BE191F4FA9420FD8AE420DD8E9
:10260000B14207D0BD00A94206D01946A8024140F8
:1026100010467CE79C4201D0214678E700203946ED
:1026200075E730B40C465C4004D50124E4076340F0
:1026300030BC0CE730BC7BE630B40C465C4004D5C3
:102640000124E407634030BC72E630BCFFE630B4DE
:102650000124E40761400D465D4001D430BC67E6CB
:10266000634030BCF3E60000FF0700000000E0FF1D
:102670000000F07F0000F87F0000F0FFCB02420D69
:1026800010B51A430B1504D00124E4072243002B94
:1026900006DB0A4CE31A05D41046D840FF2B00DDB8
:1026A000002010BD4A00002800D001201018044A64
:1026B0009042F5D8C817C04310BD00001E040000AA
:1026C0000000E0FF1F22030C02D10F22000402D001
:1026D000030E03D004E0002001467047083A0002D0
:1026E000030F01D1121F0001830F01D1921E800040
:1026F000002801DB521E4000120551184205C0128D
:10270000411810467047C10FC90700D0404201224E
:1027100092071143D6E701218907D3E7F0B5904C22
:102720000D092646AC46AE430D465D4087B0002EEF
:102730007ED01E092746B743FAD067462740ED0FE3
:102740003D43264075D024012142FBD07419FF255A
:10275000AD04641B0494CC02D90201231B05C90AF1
:102760001943E40A1C430F012401030F110F1C43FA
:102770000F430501A10B88032D0916018443A80B03
:1027800082039543BB0B9A0397433609BC46B20BB1
:102790009703BE430746574303972F467743029656
:1027A000BE46029F4619D71906967E430597039F9A
:1027B000F71B7646BE1B77463F0100970196039FA5
:1027C000B60BF619B646019E009FB604BF1902D398
:1027D0007646761CB64676467600002F01D0012755
:1027E0003E4367467D43AE46029F25467D430095A6
:1027F0006D00AE1975466D00AF1965465D19069EF0
:1028000003956E437546751BAE460D19059E0295E0
:102810006E43009D5843761B75462D1A4A439646D3
:10282000B21A00920195FA0606D07D09012201E054
:1028300076E072E0154300E07D09020A00060027F9
:1028400045197A417646300A360676195041019A82
:10285000950D9202961945410098820D80028019CB
:102860006A41594363465C43039D029B6B435B1A79
:102870001E1BB30EB601B6187B410A0B0905891958
:102880005A41230A240624184B418B4200D2521C81
:1028900001204002824203D315210226F64302E0C2
:1028A00014210326F6432020451AAA401F46AF40B4
:1028B000CB402046C84004991343091471180905F8
:1028C0005A1804993843C9075140AC4009D0012334
:1028D0009C4006D30023401C5941002C01D14008E4
:1028E0004000204B002A03DB1A4201D08B4312D157
:1028F000012204989206904207DB05204007091840
:1029000019480143C012414004E003204007081861
:10291000C10FC907002007B0F0BD0020E907FAE7A2
:1029200006180C464C4111487642A04114D3941825
:102930001A465A410D48644290410DD30120490086
:102940004005814208D35900814205D3E90F054A69
:10295000C90700201143DEE700200549DBE700003E
:102960000000FF070000F07FFFFFFF7F0000E0FF97
:102970000000F87F10B500F05DFA006810BD10B5DA
:10298000044600F057FA046010BD0000F0B51FB413
:10299000FA4F0E091D09BC463E403D400C46B74368
:1029A0005C408CB0002F7DD06746AF43FBD0002D3C
:1029B00079D0002EFCD0E20F3243521BFF24A40436
:1029C00012190892420DCD02C7020E981543420D0E
:1029D000D9021143C202600305430143080C01956B
:1029E000150CAC4605040B46AB430A9565462D0411
:1029F000AA430995E24D040A7D446419803C257878
:102A000006466E4301247619E405A61B7543ED0CBA
:102A1000AD1C490B69434919A401611A0E0CB64655
:102A20003604B143694376466E43090C711889092F
:102A30000591F90700D0A100049101997F08CC0706
:102A400027434C08059DE10B4D432D0C2946664656
:102A5000754302950D4645432E46029D7D1BB441AC
:102A600000950D465D4301942C0C2F040D465543F3
:102A7000AE462D0C3D43029503947546049C2D04EF
:102A8000641B049406D2029C039D641C00267541BD
:102A90000395029401AC70CC009F7D1BB4410904E6
:102AA000009501E03BE15FE1079101940599A408DD
:102AB0006143090C0C464443650BE70464464C43F0
:102AC000A646640B3C43039502947446049DE404BB
:102AD0002C1B049406D2029C039D641C00267541A5
:102AE0000395029401AC70CC009F7D1BB44101940E
:102AF0000C465C430095650FE7000C465443A64620
:102B0000640F3C43039502947446049DE4002C1B1F
:102B1000049406D2029C039D641C00267541039513
:102B2000029401AC70CC009F7D1BB441AE09AF068E
:102B3000049DC900AD092F43049DA406AD0604956C
:102B4000079D344369180791059DE10B4D432D0CFA
:102B500029466646754302950D4645432E46029D1D
:102B60007D1BB44100950D465D4301942C0C2F0450
:102B70000D465543AE462D0C3D43029503947546D4
:102B8000049C2D04641B049406D2029C039D641CC7
:102B9000002675410395029401AC70CC009F7D1B0B
:102BA000B44101948C050694079C890A611800952C
:102BB0000791019C0599A4086143090C0D46454302
:102BC000680BEF040D46644665436C0B3C43049F61
:102BD000ED047D1BAC4602D20025641C6841009EBA
:102BE000019D371B85410846584301950C46460F09
:102BF000C5005443600F28436546E4002C1B02D2F5
:102C00000025401C6E41019D3F1AB5412846BD0973
:102C1000800628438446A009BF064E020699A406F2
:102C200076180743079D002068410A9907901943C9
:102C30000020099B00906046FF1913434041E20FBA
:102C400064003A43A4460446D71A8C41A04203D9F3
:102C50000120009020463A46C70F94184041624632
:102C6000D20F2243644664000494009CBE46640074
:102C7000D71AA446044602978C417746002F01D10B
:102C8000A04204D96046401C8446029A2046C40FE4
:102C9000A64694184041049A0546D20F2243644642
:102CA0006400D31A8D417146002901D1A84202D98E
:102CB000641C28461A4610430122002800D01643FF
:102CC00061020020079B044689195C410223002C05
:102CD00002DB491813466441089DCE0A2D145D1984
:102CE0004B056705E10A2C050C1908993E43C907F5
:102CF0006140002B08D0934006D30022761C51413E
:102D0000002B01D1760876001E4A002C45DB2346B5
:102D1000134242D0A24340D0304611B0F0BD0E461F
:102D200007184E41184D7A42B5411AD30E9A1D46E6
:102D300096185D41144A7642AA4112D301225205E7
:102D40004D00D5420AD15C00D4420AD04B4002D596
:102D500092021143E1E749004908DEE7E10FC907A4
:102D60000AE000200949D8E70648014212D0084885
:102D700021460143C01241400020CEE70000FF077A
:102D80007C1100000000F07F0000E0FF0000F87FF1
:102D9000FFFFFF7F0342E4D0E0E70123089A9B0690
:102DA0009A4205DC032252078918C90FC907B4E704
:102DB000052252078918074A1143D2125140ACE745
:102DC0005940504010B54B40424059405040FFF7E9
:102DD000DDFD10BDFFFFFF7F70B506464800440DC6
:102DE000114B0020002C0AD0634008D09A4206DA2A
:102DF0006542AA4203DD12058019514170BDCD0F15
:102E0000ED07002C05D0002B05D0002A01DB074977
:102E10000D43294670BD30460A03104302D00020FE
:102E2000034970BD304670BDFF0700000000F07F11
:102E30000000F87F004870475800002030B5034676
:102E4000CA02400D1043154D154C0A1502D02043FF
:102E5000002A06DBAA1A002A12DDD040FF2A0BDC6A
:102E600030BD5205520D01D140004008AA1A07D4C6
:102E7000D0404042FF2A01DD002030BD0028FCDDAB
:102E80004A00002B01D0012000E000201018054A64
:102E90009042F1D8C817C043604030BD1E04000006
:102EA000000000800000E0FF00487047580000204C
:102EB0007546FFF7F9FFAE46050069465346C00860
:102EC000C000854618B020B5FDF758F960BC002752
:102ED0004908B6460026C0C5C0C5C0C5C0C5C0C5E6
:102EE000C0C5C0C5C0C5403D49008D4670470446B9
:102EF000C046C0462046FDF730F9000001491820C1
:102F0000ABBEFEE7260002007047F0B4040C8BB2A3
:102F1000264682B25E430D0C1046370C58433604E9
:102F200080190021794116466E43370C360480190A
:102F3000794126466E438919F0BC70474900CA02A0
:102F4000104300D004204A0D01D001221043054A4D
:102F5000490D914201D102210843012800D10520E9
:102F600070470000FF070000F7B596B0189B0021DE
:102F70009960D960179908914C00CE4964088C4239
:102F800006DC189A179951601060002019B0F0BD46
:102F9000C9490027C94DFF438C423BDAD326089923
:102FA00076050029C64A17992B4619DDFFF744FB21
:102FB000AC4207D0C34AC44BFFF73EFB189A51609E
:102FC00010600AE03246C04BFFF736FBBF4AC04BE9
:102FD000FFF732FB189A51601060012019B0F0BD64
:102FE000FFF71FFBAC4207D0B64AB74BFFF719FB00
:102FF000189A516010600AE03246B34BFFF711FB9C
:10300000B24AB34BFFF70DFB189A51601060384677
:1030100019B0F0BDAF498C4217997CDC49004908D2
:103020000746AD4AAD4B0391FFF778FB0022AC4B4E
:10303000FFF7F7FAFFF702FF0990FFF764FB064678
:103040009F4A2B460791FFF769FB3A46039BFFF720
:10305000FEFA05460F469B4A9B4B30460799FFF701
:103060005DFB220D01240B922A463B46FFF7EFFA47
:10307000189A032C5160106039D0189840684000AD
:10308000410D0B98401A61016118113981422EDA05
:1030900094492001794402950C90081803974368DD
:1030A000026830460799FFF739FB01910090039BB6
:1030B000029AFFF7CCFA05460F46039B029AFFF7E8
:1030C000C6FA019B009AFFF7B7FA01918649009072
:1030D00079440C984018C368826830460799FFF716
:1030E0001DFB019B009AFFF7A7FA641CBCE7089838
:1030F00000280DDA1899012208684968D207514062
:10310000189A51601060099819B04042F0BD02E071
:10311000099819B0F0BD09030122090B12050D90A1
:1031200089181798109140007049400D40184111BE
:10313000C006C00E20221290101A13900020069094
:10314000079088006A49794445181435062007AC71
:103150001590286812996A6888401399CA401043EC
:1031600007461099FFF7D1FE0646119138460D9992
:10317000FFF7CBFE23688A191B189C46834201D2B5
:10318000012600E0002620464038C36B9719DB1962
:103190008A4201D2012700E0002711997918002EF8
:1031A00002D0934202D903E0934201D2012200E00F
:1031B0000022891862462260C363816315982D1F1F
:1031C000241F401E1590C4D10121029849074018C0
:1031D000800F1190029805998000039D049C0B912B
:1031E000FFF791FA06460F462846FFF794FA1D228C
:1031F000D243FFF7F1FD0A900E912046FFF78BFABC
:103200003D22D243FFF7E8FD129009910B98FFF79A
:1032100082FA5D22D243FFF7DFFD0D910890099BF2
:10322000129AFFF7FEF90E9B0A9AFFF7FAF9324657
:103230003B46FFF7F6F900240D4632463B46204652
:10324000FFF7FAF90E9B0A9AFFF7F6F9099B129A13
:10325000FFF7F2F90D9B089AFFF7F9F9254A264B7B
:10326000FFF75CFA06460F46244A254B29462046BE
:10327000FFF754FA32463B46FFF7D3F906460F46AE
:10328000152292061C4B29462046FFF747FA3B467B
:103290003246FFF7C6F9179A002A05DA119A524208
:1032A00011920122D2075140189A51601060119872
:1032B00019B0F0BDFB21E93F7CD90240FB21F93F69
:1032C000000040543163621A61B4D03D7370032E24
:1032D0008A19A33BFB21394183C8C96D305FE43FA4
:1032E0000000E03F900B0000540B00000BFCFFFFC0
:1032F0000E0B0000182D4454FB21F93D3326A61176
:10330000460B113CF0B51FB44E00F920760880053D
:1033100084B00F46864204DA0498FFF78FFD002838
:1033200038D0049A3B4610461946FFF7F7F9044691
:1033300002462C480D460B460621784400F05CF806
:1033400022462B46FFF7EAF9019100903946079B88
:10335000069A0498FFF7E2F90746029120462946AB
:10336000019B009AFFF7DAF93A46029BFFF764F9EE
:10337000074600220091D24320462946FFF72CFD44
:10338000194A96420ADA3A46009BFFF755F900229D
:10339000164B23E00020154909B0F0BD144A9642AF
:1033A00002DD0024134D03E001225205B51A00246A
:1033B00022462B46FFF740F90646019122462B464E
:1033C00000200A49FFF738F90D4604463A463046D0
:1033D000009B0199FFF730F922462B46FFF737F99A
:1033E00009B0F0BDBA0800003333D33F0000F03F0E
:1033F0000000E93F0000D23FF8B504464F1EC80068
:103400000838211815461E46086849683A460623BA
:103410009A4310D02A463346FFF780F93A46D20045
:10342000083AA3181A687F1E5B68FFF7FAF80622AD
:103430003B469343EED1022F23D0042F11D0062F09
:103440002FD12A463346FFF769F9E36AA26AFFF7EC
:10345000E8F82A463346FFF761F9636A226AFFF704
:10346000E0F82A463346FFF759F9E369A269FFF706
:10347000D8F82A463346FFF751F963692269FFF706
:10348000D0F82A463346FFF749F9E368A268FFF708
:10349000C8F82A463346FFF741F963682268FFF708
:1034A000C0F8F8BDF0B51FB4054648000C46F92138
:1034B0004008890586B088420BDA28462146FFF786
:1034C0003DFD042801D100F063F8284621460BB0E9
:1034D000F0BD2A46234610461946FFF71FF9064657
:1034E0000F462A462346FFF719F900902548019117
:1034F00032463B4605217844FFF77EFF0290109844
:103500000391002829D0204A204B01990098FFF709
:1035100005F90490059168460FC8FFF7FFF80022EF
:1035200001910090D24309990898FFF755FC019B3F
:10353000009AFFF781F832463B46FFF7EFF8099B08
:10354000089AFFF779F8059B049AFFF775F82A4661
:103550002346FFF77CF80BB0F0BD0B4630463946EA
:10356000029AFFF7DBF8084A084BFFF75AF8019B6D
:10357000009AFFF7D3F82A462346FFF752F80BB01C
:10358000F0BD0000F6070000495555555555C5BF1B
:10359000034A10B500201107FFF71EFC10BD000004
:1035A00001FDFFFF00B54A00244B520887B09A4244
:1035B00002DC002213462AE0214B9A420CD100285B
:1035C0000CD10120FFF7DBF900221346104611460B
:1035D000FFF7DCF907B000BD9A4204DB0122FFF7D8
:1035E000FBFB07B000BD02AAFFF7BEFC8107890FF5
:1035F0000BD0012001290ED0022916D0009002A87C
:103600000FC8FFF74FFF07B000BD02A80FC8FFF7B4
:1036100079FE07B000BD009002A80FC8FFF742FF77
:103620000122D207514007B000BD02A80FC8FFF722
:1036300069FE0122D207514007B000BDFB21E93FDE
:103640000000F07F00B54A00254B520887B09A422F
:1036500003DC0022134600922EE0224B9A420CD14A
:1036600000280CD10120FFF78AF9002213461046EA
:103670001146FFF78BF907B000BD9A4204DB012227
:10368000FFF7AAFB07B000BD02AAFFF76DFC810798
:10369000890F012000290CD0012911D0022915D051
:1036A00002A80FC8FFF72EFE0122D207514007B033
:1036B00000BD009002A80FC8FFF7F4FE07B000BDE0
:1036C00002A80FC8FFF71EFE07B000BD009002A8B9
:1036D0000FC8FFF7E7FE0122D207514007B000BD37
:1036E000FB21E93F0000F07F0000FFFF0000FFFF2B
:1036F0000000FF000000FF000000FFFF0000FFFFD0
:1037000000FFFFFFFFFF00FFFFFFFFFFFFFFFFFFC7
:10371000FFFFFFFFFFFFFFFF00000000000000F2BF
:10372000000000E000E00028FE28FE282454FE549B
:1037300048C6C81026C66C92AA440A00A0C0000061
:103740003844820000000082443828107C10281081
:10375000107C101000000A0C001010101010000057
:1037600002000004081020407C8A92A27C0042FEE5
:10377000020042868A92628482A2D28C182848FE75
:1037800008E4A2A2A29C3C5292920C808E90A0C00F
:103790006C9292926C609292947800006C6C000033
:1037A000006A6C00102844820028282828280082FB
:1037B00044281040808A90604C929C423C7E8888CD
:1037C000887EFE9292926C7C82828244FE82824447
:1037D00038FE92929282FE909090807C8292925ECD
:1037E000FE101010FE0082FE8200040282FC80FEA9
:1037F00010284482FE02020202FE402040FEFE200B
:103800001008FE7C8282827CFE909090607C828A8E
:10381000847AFE90989462629292928C8080FE806C
:1038200080FC020202FCF8040204F8FC021C02FC08
:10383000C6281028C6E0101E10E0868A92A2C20098
:10384000FE82820018247E2418008282FE0020401E
:1038500080402002020202020000804000042A2A66
:103860002A1EFE1222221C1C222222041C222212A8
:10387000FE1C2A2A2A18107E908040102A2A2A3CF0
:10388000FE1020201E0022BE0200040222BC000006
:10389000FE0814220082FE02003E2018201E3E1068
:1038A00020201E1C2222221C3E28282810102828F6
:1038B000283E3E10202010122A2A2A2420FC220210
:1038C000043C0202043E38040204383C020C023C70
:1038D0002214081422300A0A0A3022262A32220030
:1038E000106C82000000FE000000826C10000810C6
:1038F000100808FF8080808080808080808080FF2A
:10390000808080808080FFFF000000000000FF00BA
:103910000000000000FFFF10101010101010101019
:103920001010FF101010101010FFFF1010101010CA
:10393000101010101010FF101010101010FFFF804A
:10394000BFA0A0A0A0A0A0A0A0BF80BFA0A0A0BF1B
:1039500080FFFF00FF000000FF00FF000000FF00ED
:10396000FFFF00EF2828282828282828EF00EF2824
:103970002828EF00FFFF01FD0505050505050505E4
:10398000FD01FD050505FD01FF00003E223E000092
:1039900000003E00002E2A3A00002A2A3E0000388D
:1039A000083E00003A2A2E00003E2A2E0000202069
:1039B0003E00003E2A3E82BAAA92BA8A8A82BA821F
:1039C0008854228822AAAAAAAAAA1020101020206D
:1039D00040FE40200804FE0408101054381010382F
:1039E00054101000070813242828282828282813F2
:1039F000080700FF00FF000000FF00FF00E010C804
:103A0000241424C810E0141414141410387CFE007C
:103A100000FE7C38100878FC780863251818A47E0E
:103A20004242427E7E7E7E7E7E300C300C3080FFB5
:103A30000101FF60909060007E8888887EFE9292EF
:103A4000920CFE9292926CFE808080C0078AF28275
:103A5000FFFE92929282EE10FE10EE929292926C83
:103A6000FE081020FE3E8448903EFE10284482044A
:103A700082FC80FEFE402040FEFE101010FE7C8284
:103A800082827CFE808080FEFE909090607C8282AC
:103A900082448080FE8080E2140810E01824FE2416
:103AA00018C6281028C6FE020202FFE0101010FE01
:103AB000FE02FE02FEFE02FE02FF80FE12120CFE5D
:103AC000120C00FEFE1212120C448292927CFE1026
:103AD0007C827C62949890FE042A2A2A1E3C5252D0
:103AE000928C3E2A2A14003E20202030072A3222BF
:103AF0003F1C2A2A2A1836083E083622222A2A146F
:103B00003E0408103E1E4224481E3E0814220004B3
:103B1000223C203E3E1008103E3E0808083E1C2273
:103B200022221C3E2020203E3E282828101C222233
:103B3000220420203E2020300A0A0A3C3844FE4459
:103B40003822140814223E0202023F300808083EC0
:103B50003E023E023E3E023E023F203E0A0A043E34
:103B60000A04003E3E0A0A040014222A2A1C3E08C7
:103B70001C221C102A2C283E80807F7E7D7C7B7A34
:103B80007978777676757473727171706F6E6E6D09
:103B90006C6C6B6A6A6968686766666564646363AF
:103BA00062616160605F5F5E5E5D5D5C5C5B5B5A35
:103BB0005A595958585757565655555554545353A2
:103BC00052525251515050504F4F4F4E4E4D4D4DFD
:103BD0004C4C4C4B4B4B4A4A4A4949494848484748
:103BE0004747474646464545454444444443434386
:103BF00043424242424141414C5555555555A53FDE
:103C00007751C1166CC156BF9015CB19A001FA3E71
:103C1000AD529C804F7E92BEC4B1B4BD9EEE213E9B
:103C2000D43888BEE9FAA8BD00004054FB21F93F12
:103C30003163621A61B4D03D0000601A61B4D03DB6
:103C40007370032E8A19A33B0000002E8A19A33B30
:103C5000C14920259A837B39000000000000000044
:103C60006E83F9A22915444ED15727FCC0DD34F5E7
:103C7000999562DB4190433CAB6351FE61C5BBDE6D
:103C80003A6E24B7E0D24D42EA2E49061C92D10981
:103C90001CEB1DFE3EA729B1F53582E88444BB2EFE
:103CA00026709CE9417E5FB439D69139F43953834B
:103CB0008B5F849C3B28F9BDFF97F81F0F9805DEAA
:103CC0008B112FEF1F6D0A5ACF7E366DB709CB27A8
:103CD000663F464F2DEA5F9EC7BA27757BF1E5EB3D
:103CE000F739073DEA92528AB15FFB6B085D8D1F81
:103CF000A6F810111111813FD561C119A0012ABF89
:103D00007DFEB157E31DC73EEB9C2B8AE6E55ABE0C
:103D10007CD5CF5A3AD9E53D383D00080000002057
:103D20003800000004010008703D00083800002041
:103D300080060000200100080000000000000000D4
:103D4000000000000000000000000000006CDC0229
:103D5000000000000000000001020304060708093B
:103D60000000000001020304010203040607080921
:040000050800016985
:00000001FF
