:020000040800F2
:1000000078060020690100087101000873010008EA
:1000100000000000000000000000000000000000E0
:100020000000000000000000000000007501000852
:1000300000000000000000007701000879010008BE
:100040007B0100087B0100087B0100087B010008A0
:100050007B0100087B0100087B0100087B01000890
:100060007B0100087B0100087B0100087B01000880
:100070007B0100087B0100087B0100087B01000870
:100080007B0100087B010008000000007B010008E4
:100090007B0100087B0100087B0100087B01000850
:1000A0007B0100087B0100087B0100087B01000840
:1000B0007B010008000000007B0100080000000038
:1000C00000F002F800F040F80CA030C808382418FE
:1000D0002D18A246671EAB4654465D46AC4201D180
:1000E00000F032F87E460F3E0FCCB6460126334272
:1000F00000D0FB1AA246AB4633431847DC0400008D
:10010000FC040000103A02D378C878C1FAD852072C
:1001100001D330C830C101D504680C6070470000BD
:100120000023002400250026103A01D378C1FBD813
:10013000520700D330C100D50B6070471FB5C046D1
:10014000C0461FBD10B510BD00F014FA1146FFF7F0
:10015000F5FF00F02CF800F02CFA03B4FFF7F2FFE3
:1001600003BC00F031FA0000074880470748004709
:10017000FEE7FEE7FEE7FEE7FEE7FEE70448054987
:10018000054A064B70470000EB020008C10000085A
:1001900078000020780600207802002078020020F5
:1001A00001461C4800E0401E0028FCD170471A4858
:1001B00040690121C904084317494861174800688C
:1001C0000521090408431549086021E00020FFF7D4
:1001D000E7FF1248808AFF21013108430F498882D6
:1001E0000846808A0121490208430C498882002080
:1001F000FFF7D6FF0948808AFF210131884307496C
:1002000088820846808A01214902884303498882FE
:10021000DCE70000003E49000010024000080048F2
:100220000CB500200190009072480068012109047B
:1002300008437049086000BF6E4800680121490406
:10024000084000900198401C01900098002804D1BB
:100250000521090201988842EED166480068012113
:100260004904084202D00120009001E000200090E3
:100270000098012838D111205F4908605D48406826
:100280005C494860084640684860084640683F212D
:100290000904884357494860084640681121090409
:1002A000084354494860084600680121090608438C
:1002B0005049086000BF4F480068012149060842C4
:1002C000F9D04C484068800880004A494860084698
:1002D0004068022108434749486000BF45484068DC
:1002E0000C2108400828F9D10CBD10B54148006820
:1002F000012108433F490860084640683F490840DB
:100300003C494860084600683D4908403949086052
:100310000846006801218904884336490860084678
:1003200040683F2109048843324948600846C06A52
:1003300000090001C8620846006BFF215431884360
:100340002C4908630846406B400840004863002081
:100350008860FFF765FF10BDF8B500250024002672
:100360000027244840680C2108400546002D04D091
:10037000042D06D0082D2AD107E022482249086022
:1003800029E020482049086025E01A4840680F21EC
:1003900089040840044617484068012109040840C0
:1003A0000646A00C841C002E04D118486043164950
:1003B00008600BE00F48C06A0007000F471C394671
:1003C000104800F027F860430F49086003E00D482B
:1003D0000D49086000BF00BF06484068F021084092
:1003E00000090B490D5C08480068E84006490860B0
:1003F000F8BD000000100240002002400CB8FFF8D9
:10040000FFFFF6FE00127A000000002000093D0008
:1004100004000020002203098B422CD3030A8B42E4
:1004200011D300239C464EE003460B433CD40022EC
:1004300043088B4231D303098B421CD3030A8B42FE
:1004400001D394463FE0C3098B4201D3CB01C01ACC
:10045000524183098B4201D38B01C01A5241430997
:100460008B4201D34B01C01A524103098B4201D385
:100470000B01C01A5241C3088B4201D3CB00C01AF2
:10048000524183088B4201D38B00C01A524143086A
:100490008B4201D34B00C01A5241411A00D201468F
:1004A0005241104670475DE0CA0F00D04942031028
:1004B00000D34042534000229C4603098B422DD377
:1004C000030A8B4212D3FC22890112BA030A8B421F
:1004D0000CD3890192118B4208D3890192118B426E
:1004E00004D389013AD0921100E08909C3098B42F3
:1004F00001D3CB01C01A524183098B4201D38B0136
:10050000C01A524143098B4201D34B01C01A5241D8
:1005100003098B4201D30B01C01A5241C3088B421D
:1005200001D3CB00C01A524183088B4201D38B0008
:10053000C01A5241D9D243088B4201D34B00C01A92
:100540005241411A00D20146634652415B101046A7
:1005500001D34042002B00D54942704763465B10EF
:1005600000D3404201B50020C046C04602BD7047DE
:1005700070477047754600F023F8AE46050069469F
:100580005346C008C000854618B020B5FFF7F6FDF9
:1005900060BC00274908B6460026C0C5C0C5C0C516
:1005A000C0C5C0C5C0C5C0C5C0C5403D49008D4619
:1005B00070470446C046C0462046FFF7CEFD000007
:1005C000004870471400002001491820ABBEFEE728
:1005D0002600020070470000F80500080000002017
:1005E00014000000040100080C060008140000209C
:1005F0006406000020010008006CDC02000000001E
:0C060000000000000102030406070809C6
:040000050800016985
:00000001FF
